:0A00000094C0FECFBEC0FCCFFBCFC2
:10000A00FACFF9CFF8CFF7CFF6CFF5CFB6C0F3CF07
:10001A00F2CFF1CFF0CFEFCFEECFEDCF0102030455
:10002A00010204030103020401030402010403029E
:10003A00010402030201030402010403020301048E
:10004A00020304010204010302040301030102047E
:10005A00030104020302010403020401030402016E
:10006A00030401020401020304010302040201035E
:10007A000402030104030102040302011027E80336
:10008A0064000A00010000100001100001000000D5
:10009A00000000002020434F494C20205357495468
:1000AA004348200020202020202053595354454DF6
:1000BA002000535450205345542053455120535443
:1000CA00520020202020200080C001000200980059
:1000DA00040004009A00100060019E000E007001E6
:1000EA00AE0010007E01BC0006008E01CC000200AA
:1000FA009401AC0002009601AC0002009801AC0029
:10010A0006009A01CC000200A001AC000200A20184
:10011A00AC000200A401AC000200AE01D200000053
:10012A00F894EE27ECBBF1E0FBBFEBBFE5BF8DE037
:10013A00A2E0BB27ED938A95E9F780E094E0A0E678
:10014A00ED930197E9F7E4EDF0E085919591009739
:10015A0061F0A591B59105901590BF01F001059048
:10016A000D920197E1F7FB01F0CFEFE5EDBFE4E077
:10017A00EEBFC0E6D1E023C01895EA93FA93EFB731
:10018A00EA9363D11BB10CB1E12FEC7189F4E52D2F
:10019A005394F0E0EA55FE4F0083E8E0E51509F4D0
:1001AA0055247394E8E0E71519F47724689420F845
:1001BA0009911991E991EFBFF991E9911895E0E058
:1001CA00E7BBE8BBE4BBE5BBE1BBE2BBE3BFE2BF25
:1001DA00EFBDEEBDEDBDECBDE7BDE6BDEBBDEABDD5
:1001EA00E9BDE8BDE2BDE5BDE4BDE3BDE9BFE5BFEC
:1001FA00EBB9E8E9EAB9E6E8E0BDE0E0E0BDEFE541
:10020A00E9B9E0E8E8B9E0E0E0BFE6B9EDB9E6BF90
:10021A00A0E1BED089D0A0E6B1E0A9D0A0E7B1E0C4
:10022A00A6D0A0EDB7E002D17FD0AEE7B1E09FD073
:10023A00DFD0AEE8B1E0E0D0E8D0A4E9B1E0DCD0AC
:10024A003196E3D0A6E9B1E0D7D03296DED0A8E95C
:10025A00B1E0D2D03396D9D07894A8ECDAD0879B83
:10026A0002C0A3E70BC0B09B02C00BD008C0B19B71
:10027A0002C0A62D03C0B29B02C0A4E7B2D0EDCF44
:10028A00FFCFE7E16E1610F4639401C06624B0D084
:10029A00AAE9B1E0B1D0B9D0A0EAB1E0ADD03196C7
:1002AA00B4D0A2EAB1E0A8D03296AFD0A4EAB1E0C5
:1002BA00A3D03396AAD00895AA93E881E07111F0E9
:1002CA00AD9A01C0AD98E881E07211F0AC9A01C014
:1002DA00AC98E881E07411F0AB9A01C0AB98E88160
:1002EA00E07811F0AA9A01C0AA9895D0A99A93D059
:1002FA00A99891D07BC0AA93A881DEDFE881E29514
:10030A00E883A881D9DF86EF8A95F1F76FC0AA93AF
:10031A00E881F0E0E255FE4FE081A981AE0FEBDF04
:10032A009980888022960895A2E0E5DFA3E071D043
:10033A00ACE0E1DFA1E0DFDFA3E06BD0E0E08E2EEE
:10034A009E2E0895AA93A881AA3011F09B1448F012
:10035A00E0E0EA938394A82DDADFA881AA3009F4B1
:10036A0045C09394949AA881C6DF94983FC0BA93E3
:10037A00AA931A93A981BA81ED91A983BA831E2FF0
:10038A00E03019F0A12FDEDFF5CF1881239608950A
:10039A00AA93A59AA49AA39AA29AA19A8C9AA09A85
:1003AA00A9989498A898B880E881E058E093B00199
:1003BA00E881E054E093B101A4E12BD030D02FD0F2
:1003CA002ED0A0E279DF81E791E00197F1F7A8E268
:1003DA0092DFA4E090DFA5E88EDFA6E08CDFA4DF41
:1003EA0005C0AA935D9BFECFE881ECB921960895DA
:1003FA00E0E0EA93A1E08BCFBADFE62DA6E2B0E017
:10040A00F0E01ED0EA0FFB1F0895E491E05DAE2FE5
:10041A0099CFB0E00BC089E18A95F1F70895A0E37E
:10042A004BDF81E791E00197F1F70895109639F0D3
:10043A0086E69EE00197F1F7A8951197C9F7089506
:10044A00EE0FFF1FEE0FFF1F08951A930A930895E8
:00000001FF
