:06000000E5C0FECFFDCFBC
:10000600FCCFFBCFFACFF9CFF8CFF7CFF6CFF5CFAE
:1000160006C1F3CFF2CFF1CFF0CFEFCFEECFEDCFDA
:1000260001000000000100000000010000000001C6
:1000360001000000000100000000000100000100B6
:1000460001000000000001000001000000000001A6
:100056000100000000000100000000010001000096
:100066000100000000000001000001000001000086
:100076000100000000000001000100000000010076
:100086000001000001000000000001000000000166
:100096000001000001000000000000010000010056
:1000A6000001000000000100010000000000000146
:1000B6000001000000000100000000010100000036
:1000C6000001000000000001010000000000010026
:1000D6000001000000000001000001000100000016
:1000E6000000010001000000000100000000000106
:1000F60000000100010000000000000100010000F6
:1001060000000100000100000100000000000001E5
:1001160000000100000100000000000101000000D5
:1001260000000100000000010001000001000000C5
:1001360000000100000000010100000000010000B5
:1001460000000001010000000001000000000100A5
:100156000000000101000000000001000001000095
:100166000000000100010000010000000000010085
:100176000000000100010000000001000100000075
:100186000000000100000100010000000001000065
:100196000000000100000100000100000100000055
:1001A6001027E80364000A00010000100001100097
:1001B600010000000000000001000200B801040078
:1001C6000600BA010000F894EE27ECBBF1E0FBBF95
:1001D600EBBFE5BF8DE0A2E0BB27ED938A95E9F77B
:1001E60080E094E0A0E6ED930197E9F7EEEBF1E00D
:1001F60085919591009761F0A591B591059015901F
:10020600BF01F00105900D920197E1F7FB01F0CFD8
:10021600EFE5EDBFE4E0EEBFC0E6D1E045C0EA930E
:10022600FA93EFB7EA9329D11BB10CB1E12FEC7128
:1002360029F5E62D6394F0E0E05AFE4F0083003086
:1002460010F0083108F005C0E02FEE0FEE0F7E2EFD
:100256000AC0033719F4689420F805C0043719F466
:10026600E89420F8CAD0E1E0E61509F46624839400
:10027600E1E0E81519F48824689421F809911991A8
:10028600E991EFBFF991E9911895AA93E881E064A5
:10029600E7B981E38A95F1F7369A349BFECF349A13
:1002A600E4B1F5B121960895E0E0E7BBE8BBECE3E5
:1002B600E4BBE0E0E5BBE1BBE2BBE3BFE2BFEFBD11
:1002C600EEBDEDBDECBDE7BDE6BDEBBDEABDE9BDEE
:1002D600E8BDE2BDE5BDE4BDE3BDE9BFE5BFEBB901
:1002E600E0E9EAB9E6E8E0BDE0E0E0BDEFE5E9B95E
:1002F600E0E8E8B9E0E4E7B9E4E8E6B9E0E0E0BF61
:10030600EDB9E6BF7AD0E89420F87894772420FEF9
:1003160071C0A0E0BADF2F01E4E1F0E04E165F06FF
:100326001CF4E1E0F0E02F016DD074D011F4AD982B
:1003360001C0AD9A67D071D011F4AC9801C0AC9AE7
:1003460061D06DD011F4AB9801C0AB9A5BD069D087
:1003560011F4AA9801C0AA9A66D06BD05BD011F4AA
:10036600AD9801C0AD9A68D058D011F4AC9801C0D0
:10037600AC9A62D054D011F4AB9801C0AB9A5CD061
:1003860050D011F4AA9801C0AA9A4DD059D042D0A3
:1003960011F4AD9801C0AD9A56D03FD011F4AC9887
:1003A60001C0AC9A50D03BD011F4AB9801C0AB9AC7
:1003B6004AD037D011F4AA9801C0AA9A34D047D0AF
:1003C60029D011F4AD9801C0AD9A44D026D011F4CD
:1003D600AC9801C0AC9A3ED022D011F4AB9801C0C3
:1003E600AB9A38D01ED011F4AA9801C0AA9AD201AD
:1003F60035D08DCF02D08BCFFFCFAD98AC98AB98D0
:10040600AA980895E72DA6E2B0E0F0E031D0EA0F11
:10041600FB1F0895E491E03008953196FBCF3296A4
:10042600F9CF3396F7CFD20119D0E72DF0E020D0DF
:100436000895E65DFF4F0895E72DF0E019D0F9CF56
:10044600E25DFF4F0895E72DF0E012D0F9CFEE5CA4
:10045600FF4F0895E72DF0E00BD0F9CF109639F055
:1004660086E69EE00197F1F7A8951197C9F70895DA
:10047600EE0FFF1FEE0FFF1F08951A930A930895BC
:00000001FF
